:020000040800F2
:1000000000280020890D00082D0D0008330D000880
:10001000390D00083F0D0008450D000800000000E4
:100020000000000000000000000000004B0D000870
:10003000570D000800000000630D00086F0D000858
:10004000D10D0008D10D0008D10D0008D10D000818
:10005000D10D0008D10D0008D10D0008D10D000808
:10006000D10D0008D10D0008D10D0008D10D0008F8
:10007000D10D0008D10D0008D10D0008D10D0008E8
:10008000D10D0008D10D0008D10D0008D10D0008D8
:10009000D10D0008D10D0008D10D0008D10D0008C8
:1000A000D10D0008D10D0008D10D0008D10D0008B8
:1000B000D10D0008D10D000800000000D10D00088E
:1000C000D10D00080000000000000000D10D000864
:1000D00000000000D10D0008D10D00080000000054
:1000E000D10D0008D10D0008D10D0008000000005E
:1000F0000000000000000000000000000000000000
:0C01000000000000000000005FF808F1A3
:10010C0010B5054C237833B9044B13B10448AFF345
:10011C0000800123237010BD0C00002000000000A3
:10012C00DC1B000808B5034B1BB103490348AFF3B4
:10013C00008008BD0000000010000020DC1B00083F
:10014C0080B582B000AF78607B68092B00F2C88163
:10015C0001A252F823F000BF8D010008E301000852
:10016C00390200088F020008E50200083B03000872
:10017C0091030008E70300083D04000893040008FD
:10018C0000224FF48071D54801F002F900224FF49F
:10019C000071D24801F0FCF800224FF48061CF4886
:1001AC0001F0F6F800224FF40061CC4801F0F0F8B1
:1001BC0000224FF48051C94801F0EAF800224FF4B4
:1001CC000051C64801F0E4F801224FF48041C348C5
:1001DC0001F0DEF885E101224FF48071BF4801F097
:1001EC00D7F800224FF40071BC4801F0D1F800227E
:1001FC004FF48061B94801F0CBF801224FF4006153
:10020C00B64801F0C5F801224FF48051B34801F013
:10021C00BFF801224FF40051B04801F0B9F80122A7
:10022C004FF48041AD4801F0B3F85AE100224FF48D
:10023C008071AA4801F0ACF800224FF40071A74875
:10024C0001F0A6F801224FF48061A44801F0A0F857
:10025C0000224FF40061A14801F09AF800224FF4FB
:10026C0080519E4801F094F801224FF400519B48B4
:10027C0001F08EF800224FF48041984801F088F884
:10028C002FE100224FF48071944801F081F8002294
:10029C004FF40071914801F07BF800224FF480611B
:1002AC008E4801F075F800224FF400618B4801F084
:1002BC006FF801224FF48051884801F069F801224F
:1002CC004FF40051854801F063F800224FF480414F
:1002DC00824801F05DF804E101224FF480717F48FF
:1002EC0001F056F800224FF400717C4801F050F8F0
:1002FC0000224FF48061794801F04AF801224FF452
:10030C000061764801F044F801224FF480517348A3
:10031C0001F03EF800224FF40051704801F038F81B
:10032C0000224FF480416D4801F032F8D9E00022F0
:10033C004FF48071694801F02BF801224FF40071E1
:10034C00664801F025F800224FF48061634801F003
:10035C001FF800224FF40061604801F019F80122E7
:10036C004FF480515D4801F013F800224FF4005116
:10037C005A4801F00DF800224FF48041574801F023
:10038C0007F8AEE000224FF48071544801F000F8F9
:10039C0001224FF40071514800F0FAFF00224FF493
:1003AC0080614E4800F0F4FF00224FF400614B488E
:1003BC0000F0EEFF00224FF48051484800F0E8FFB7
:1003CC0000224FF40051454800F0E2FF00224FF4A8
:1003DC008041424800F0DCFF83E000224FF4807142
:1003EC003E4800F0D5FF00224FF400713B4800F06E
:1003FC00CFFF00224FF48061384800F0C9FF012282
:10040C004FF40061354800F0C3FF01224FF48051D6
:10041C00324800F0BDFF01224FF400512F4800F08C
:10042C00B7FF01224FF480412C4800F0B1FF58E097
:10043C0000224FF48071294800F0AAFF00224FF4EB
:10044C000071264800F0A4FF00224FF4806123487D
:10045C0000F09EFF00224FF40061204800F098FF4E
:10046C0000224FF480511D4800F092FF00224FF4FF
:10047C0000511A4800F08CFF00224FF480411748BD
:10048C0000F086FF2DE000224FF48071134800F03D
:10049C007FFF00224FF40071104800F079FF00221A
:1004AC004FF480610D4800F073FF00224FF400619F
:1004BC000A4800F06DFF01224FF48051074800F00C
:1004CC0067FF00224FF40051044800F061FF002246
:1004DC004FF48041014800F05BFF02E0000801404E
:1004EC0000BF00BF0837BD4680BD00BF80B582B0DD
:1004FC0000AF78607B68092B00F29E8101A252F854
:10050C0023F000BF3905000887050008D505000851
:10051C002306000871060008BF0600080D07000836
:10052C005B070008A9070008F70700080022022152
:10053C00C44800F02DFF00220421C24800F028FF1F
:10054C0000220821BF4800F023FF00221021BD48E3
:10055C0000F01EFF00224FF40041BA4800F018FFD3
:10056C0000224FF48051B84800F012FF01224FF4E2
:10057C000051B54800F00CFF5FE101220221B148A7
:10058C0000F006FF00220421AE4800F001FF00221B
:10059C000821AC4800F0FCFE01221021A94800F013
:1005AC00F7FE01224FF40041A64800F0F1FE0122B3
:1005BC004FF48051A44800F0EBFE01224FF400519F
:1005CC00A14800F0E5FE38E1002202219D4800F030
:1005DC00DFFE002204219B4800F0DAFE01220821F4
:1005EC00984800F0D5FE00221021964800F0D0FE6D
:1005FC0000224FF40041934800F0CAFE01224FF450
:10060C008051914800F0C4FE00224FF400518E48F6
:10061C0000F0BEFE11E1002202218A4800F0B8FE73
:10062C0000220421874800F0B3FE002208218548EF
:10063C0000F0AEFE00221021824800F0A9FE01223B
:10064C004FF400417F4800F0A3FE01224FF480518B
:10065C007D4800F09DFE00224FF400517A4800F0D6
:10066C0097FEEAE001220221764800F091FE00227A
:10067C000421744800F08CFE00220821714800F01F
:10068C0087FE012210216F4800F082FE01224FF4F8
:10069C0000416C4800F07CFE00224FF480516A4807
:1006AC0000F076FE00224FF40051674800F070FE17
:1006BC00C3E000220221634800F06AFE01220421FB
:1006CC00604800F065FE002208215E4800F060FEE4
:1006DC00002210215B4800F05BFE01224FF4004128
:1006EC00584800F055FE00224FF48051564800F057
:1006FC004FFE00224FF40051534800F049FE9CE09D
:10070C00002202214F4800F043FE012204214D48F3
:10071C0000F03EFE002208214A4800F039FE00227B
:10072C001021484800F034FE00224FF400414548A7
:10073C0000F02EFE00224FF48051434800F028FEBA
:10074C0000224FF40051404800F022FE75E00022D8
:10075C0002213C4800F01CFE00220421394800F024
:10076C0017FE00220821374800F012FE012210214A
:10077C00344800F00DFE01224FF40041314800F0E6
:10078C0007FE01224FF480512F4800F001FE012298
:10079C004FF400512C4800F0FBFD4EE000220221EA
:1007AC00284800F0F5FD00220421264800F0F0FD59
:1007BC0000220821234800F0EBFD002210212148E3
:1007CC0000F0E6FD00224FF400411E4800F0E0FD71
:1007DC0000224FF480511C4800F0DAFD00224FF447
:1007EC000051194800F0D4FD27E0002202211548E1
:1007FC0000F0CEFD00220421124800F0C9FD0022B9
:10080C000821104800F0C4FD002210210D4800F012
:10081C00BFFD01224FF400410A4800F0B9FD00224F
:10082C004FF48051084800F0B3FD00224FF4005102
:10083C00054800F0ADFD00E000BF00BF0837BD4625
:10084C0080BD00BF00080140000C014080B58AB09B
:10085C0000AF00F0B9FA00F099F900F0D3F90023D9
:10086C007B6204233B620223FB610123BB610023F7
:10087C007B6100233B610023FB600023BB600123F1
:10088C007B607B6A002B3FD100220121BE4800F027
:10089C007FFD00220821BC4800F07AFD01220221D4
:1008AC00B94800F075FD01221021B74800F070FD29
:1008BC0001220421B44800F06BFD01222021B24832
:1008CC0000F066FD01224021AF4800F061FD0122DD
:1008DC004FF40071AC4800F05BFD01228021AA4866
:1008EC0000F056FD01224FF48061A74800F050FD46
:1008FC0000224FF48071A44800F04AFD00224FF40E
:10090C000061A14800F044FD01237B623B6A002B8F
:10091C002CDABB69012B29D17B69002B26D13B69D1
:10092C00002B23D101233B610023BB610122012158
:10093C00954800F02DFD01220821934800F028FD78
:10094C0001220221904800F023FD012210218E4843
:10095C0000F01EFD002204218B4800F019FD00223E
:10096C002021894800F014FD02233B623B6A002BD6
:10097C002CDABB69002B29D17B69002B26D13B6972
:10098C00012B23D100233B6101237B610122012137
:10099C007D4800F0FDFC012208217B4800F0F8FCAA
:1009AC0000220221784800F0F3FC00221021764846
:1009BC0000F0EEFC01220421734800F0E9FC012256
:1009CC002021714800F0E4FC01233B623B6A002BC0
:1009DC002CDABB69002B29D17B69012B26D13B6911
:1009EC00002B23D100237B610123BB610022012159
:1009FC00654800F0CDFC00220821634800F0C8FCDB
:100A0C0001220221604800F0C3FC012210215E4843
:100A1C0000F0BEFC012204215B4800F0B9FC01226D
:100A2C002021594800F0B4FC04233B62FB69002BE5
:100A3C0030DAFB68012B2DD1BB68002B2AD17B68E7
:100A4C00002B27D101237B600023FB600122402176
:100A5C004D4800F09DFC01224FF400714A4800F013
:100A6C0097FC01228021484800F092FC01224FF4AF
:100A7C008061454800F08CFC00224FF480714248A4
:100A8C0000F086FC00224FF400613F4800F080FC2F
:100A9C000223FB61FB69002B30DAFB68002B2DD1A4
:100AAC00BB68002B2AD17B68012B27D100237B60EC
:100ABC000123BB6001224021334800F069FC012274
:100ACC004FF40071304800F063FC002280212E4866
:100ADC0000F05EFC00224FF480612B4800F058FCC3
:100AEC0001224FF48071284800F052FC01224FF48F
:100AFC000061254800F04CFC0123FB61FB69002BD5
:100B0C0030DAFB68002B2DD1BB68012B2AD17B6816
:100B1C00002B27D10023BB600123FB600022402166
:100B2C00194800F035FC00224FF40071164800F013
:100B3C002FFC01228021144800F02AFC01224FF4E2
:100B4C008061114800F024FC01224FF480710E48A2
:100B5C0000F01EFC01224FF400610B4800F018FC61
:100B6C000423FB613B6A5A1E3A621846FFF7E8FA07
:100B7C00FB695A1EFA611846FFF7B8FC4FF47A70FD
:100B8C0000F084F97DE600BF000C014080B590B008
:100B9C0000AF07F1180328220021184601F010F8C5
:100BAC003B1D00221A605A609A60DA601A610223B7
:100BBC00BB610123BB621023FB6200237B6307F143
:100BCC001803184600F0FCFB0346002B01D000F084
:100BDC006FF80F237B600023BB600023FB600023B6
:100BEC003B6100237B613B1D0021184600F068FE31
:100BFC000346002B01D000F05BF800BF4037BD4628
:100C0C0080BD000080B586B000AF07F1080300225C
:100C1C001A605A609A60DA60224B9B69214A43F051
:100C2C00040393611F4B9B6903F004037B607B6897
:100C3C001C4B9B691B4A43F008039361194B9B693E
:100C4C0003F008033B603B6800224FF61E71164808
:100C5C0000F09EFB002243F6FF71144800F098FB55
:100C6C004FF61E73BB600123FB6000233B61022324
:100C7C007B6107F1080319460B4800F00FFA43F6A5
:100C8C00FF73BB600123FB6000233B6102237B618C
:100C9C0007F108031946054800F000FA00BF1837A1
:100CAC00BD4680BD0010024000080140000C014010
:100CBC0080B400AF72B600BFFEE7000080B485B010
:100CCC0000AF154B9B69144A43F001039361124B1F
:100CDC009B6903F00103BB60BB680F4BDB690E4AD9
:100CEC0043F08053D3610C4BDB6903F080537B6082
:100CFC007B680A4B5B68FB60FB6823F0E063FB607E
:100D0C00FB6843F08063FB60044AFB68536000BFE0
:100D1C001437BD4680BC70470010024000000140F3
:100D2C0080B400AFFEE780B400AFFEE780B400AF44
:100D3C00FEE780B400AFFEE780B400AFFEE780B4FE
:100D4C0000AF00BFBD4680BC704780B400AF00BF91
:100D5C00BD4680BC704780B400AF00BFBD4680BCB0
:100D6C00704780B500AF00F075F800BF80BD80B44F
:100D7C0000AF00BFBD4680BC70470000FFF7F7FF17
:100D8C000B480C490C4A002302E0D458C4500433DD
:100D9C00C4188C42F9D3094A094C002301E01360B2
:100DAC000432A242FBD300F0E7FEFFF74FFD704781
:100DBC00000000200C000020201C00080C0000206B
:100DCC002C000020FEE7000080B500AF084B1B682C
:100DDC00074A43F010031360032000F02BF90F2097
:100DEC0000F008F8FFF76AFF0023184680BD00BF2B
:100DFC000020024080B582B000AF7860124B1A68B8
:100E0C00124B1B7819464FF47A73B3FBF1F3B2FB18
:100E1C00F3F3184600F035F90346002B01D00123FB
:100E2C000EE07B680F2B0AD8002279684FF0FF3058
:100E3C0000F00BF9064A7B681360002300E00123E5
:100E4C0018460837BD4680BD000000200800002071
:100E5C000400002080B400AF054B1B781A46054BEC
:100E6C001B681344034A136000BFBD4680BC704727
:100E7C00080000202800002080B400AF024B1B6843
:100E8C001846BD4680BC70472800002080B584B051
:100E9C0000AF7860FFF7F0FFB8607B68FB60FB6821
:100EAC00B3F1FF3F05D00A4B1B781A46FB6813447D
:100EBC00FB6000BFFFF7E0FF0246BB68D31AFA687D
:100ECC009A42F7D800BF00BF1037BD4680BD00BFA7
:100EDC000800002080B485B000AF78607B6803F018
:100EEC000703FB600C4BDB68BB60BA684FF6FF0373
:100EFC001340BB60FB681A02BB68134343F0BF632B
:100F0C0043F40033BB60044ABB68D36000BF1437A2
:100F1C00BD4680BC704700BF00ED00E080B400AF60
:100F2C00044BDB681B0A03F007031846BD4680BC64
:100F3C00704700BF00ED00E080B483B000AF034603
:100F4C003960FB7197F90730002B0ADB3B68DAB28A
:100F5C000C4997F907301201D2B20B4483F80023E5
:100F6C000AE03B68DAB20849FB7903F00F03043B53
:100F7C001201D2B20B441A7600BF0C37BD4680BCAE
:100F8C00704700BF00E100E000ED00E080B489B0E4
:100F9C0000AFF860B9607A60FB6803F00703FB618F
:100FAC00FB69C3F10703042B28BF0423BB61FB6956
:100FBC000433062B02D9FB69033B00E000237B6161
:100FCC004FF0FF32BB6902FA03F3DA43BB681A40F5
:100FDC007B699A404FF0FF317B6901FA03F3D943E7
:100FEC007B680B40134318462437BD4680BC7047C2
:100FFC0080B582B000AF78607B68013BB3F1807F35
:10100C0001D301230FE00A4A7B68013B53600F2197
:10101C004FF0FF30FFF790FF054B00229A60044B16
:10102C0007221A60002318460837BD4680BD00BF52
:10103C0010E000E080B582B000AF78607868FFF710
:10104C0049FF00BF0837BD4680BD80B586B000AFF4
:10105C000346B9607A60FB7300237B61FFF75EFF88
:10106C0078617A68B9687869FFF790FF024697F95A
:10107C000F3011461846FFF75FFF00BF1837BD460B
:10108C0080BD80B582B000AF78607868FFF7B0FFA4
:10109C00034618460837BD4680BD000080B48BB0AF
:1010AC0000AF7860396000237B6200233B6248E12B
:1010BC0001227B6A02FA03F3FB613B681B68FA6945
:1010CC001340BB61BA69FB699A4240F037813B68B7
:1010DC005B68A34A93425ED0A14A934275D8A14A59
:1010EC00934258D09F4A93426FD89F4A934252D012
:1010FC009D4A934269D89D4A93424CD09B4A934255
:10110C0063D89B4A934246D0994A93425DD8122B9E
:10111C002AD8122B59D801A252F823F0A311000897
:10112C007D1100088F110008D1110008D71100089B
:10113C00D7110008D7110008D7110008D7110008E3
:10114C00D7110008D7110008D7110008D7110008D3
:10115C00D7110008D7110008D7110008D7110008C3
:10116C008511000899110008824A934213D02CE093
:10117C003B68DB683B6229E03B68DB6804333B621D
:10118C0024E03B68DB6808333B621FE03B68DB68AC
:10119C000C333B621AE03B689B68002B02D10423A2
:1011AC003B6213E03B689B68012B05D108233B6233
:1011BC007B68FA691A6109E008233B627B68FA696B
:1011CC005A6103E000233B6200E000BFBB69FF2BC8
:1011DC0001D87B6801E07B6804337B61BB69FF2B22
:1011EC0002D87B6A9B0002E07B6A083B9B003B6158
:1011FC007B691A680F213B6901FA03F3DB431A4040
:10120C00396A3B6901FA03F31A437B691A603B683C
:10121C005B6803F08053002B00F09080564B9B6969
:10122C00554A43F001039361534B9B6903F001034F
:10123C00BB60BB68514A7B6A9B08023352F823306F
:10124C00FB607B6A03F003039B000F2202FA03F39B
:10125C00DB43FA681340FB607B68494A93420DD02C
:10126C007B68484A934207D07B68474A934201D136
:10127C00022304E0032302E0012300E000237A6A46
:10128C0002F0030292009340FA681343FB603B495F
:10129C007B6A9B080233FA6841F823203B685B6841
:1012AC0003F48013002B06D0384B9A683749BB697E
:1012BC0013438B6006E0354B9A68BB69DB433349BB
:1012CC0013408B603B685B6803F40013002B06D063
:1012DC002E4BDA682D49BB691343CB6006E02B4BD0
:1012EC00DA68BB69DB4329491340CB603B685B6818
:1012FC0003F40033002B06D0244B5A682349BB69F6
:10130C0013434B6006E0214B5A68BB69DB431F4912
:10131C0013404B603B685B6803F48033002B06D0B2
:10132C001A4B1A681949BB6913430B6006E0174B3B
:10133C001A68BB69DB43154913400B607B6A0133A8
:10134C007B623B681A687B6A22FA03F3002B7FF4FA
:10135C00AFAE00BF00BF2C37BD4680BC704700BF8E
:10136C00000032100000311000002210000021108B
:10137C00000012100000111000100240000001408B
:10138C0000080140000C0140001001400004014025
:10139C0080B483B000AF78600B467B8013467B70C3
:1013AC007B78002B03D07A887B681A6103E07B88FA
:1013BC001A047B681A6100BF0C37BD4680BC7047AD
:1013CC0080B586B000AF78607B68002B01D101231B
:1013DC006CE27B681B6803F00103002B00F0878034
:1013EC00924B5B6803F00C03042B0CD08F4B5B68A7
:1013FC0003F00C03082B12D18C4B5B6803F4803385
:10140C00B3F5803F0BD1894B1B6803F40033002BE1
:10141C006CD07B685B68002B68D1012346E27B684B
:10142C005B68B3F5803F06D1804B1B687F4A43F461
:10143C00803313602EE07B685B68002B0CD17B4BF8
:10144C001B687A4A23F480331360784B1B68774A05
:10145C0023F4802313601DE07B685B68B3F5A02F39
:10146C000CD1724B1B68714A43F4802313606F4B91
:10147C001B686E4A43F4803313600BE06B4B1B68A4
:10148C006A4A23F480331360684B1B68674A23F461
:10149C00802313607B685B68002B13D0FFF7ECFC98
:1014AC00386108E0FFF7E8FC02463B69D31A642B6D
:1014BC0001D90323FAE15D4B1B6803F40033002BC5
:1014CC00F0D014E0FFF7D8FC386108E0FFF7D4FC4B
:1014DC0002463B69D31A642B01D90323E6E1534B33
:1014EC001B6803F40033002BF0D100E000BF7B68D5
:1014FC001B6803F00203002B63D04C4B5B6803F0BA
:10150C000C03002B0BD0494B5B6803F00C03082B2E
:10151C001CD1464B5B6803F48033002B16D1434B34
:10152C001B6803F00203002B05D07B681B69012BA1
:10153C0001D00123BAE13D4B1B6823F0F8027B6814
:10154C005B69DB00394913430B603AE07B681B692C
:10155C00002B20D0364B01221A60FFF78DFC38612E
:10156C0008E0FFF789FC02463B69D31A022B01D92C
:10157C0003239BE12D4B1B6803F00203002BF0D0DF
:10158C002A4B1B6823F0F8027B685B69DB00274958
:10159C0013430B6015E0264B00221A60FFF76CFC1E
:1015AC00386108E0FFF768FC02463B69D31A022B4E
:1015BC0001D903237AE11D4B1B6803F00203002BB6
:1015CC00F0D17B681B6803F00803002B3AD07B68D2
:1015DC009B69002B19D0174B01221A60FFF74CFCAA
:1015EC00386108E0FFF748FC02463B69D31A022B2E
:1015FC0001D903235AE10D4B5B6A03F00203002B64
:10160C00F0D0012000F09AFA1CE00A4B00221A607C
:10161C00FFF732FC38610FE0FFF72EFC02463B6906
:10162C00D31A022B08D9032340E100BF001002405B
:10163C0000004242800442429E4B5B6A03F002036C
:10164C00002BE9D17B681B6803F00403002B00F02E
:10165C00A6800023FB75974BDB6903F08053002BAE
:10166C000DD1944BDB69934A43F08053D361914B7A
:10167C00DB6903F08053BB60BB680123FB758E4BA9
:10168C001B6803F48073002B18D18B4B1B688A4AA0
:10169C0043F480731360FFF7EFFB386108E0FFF74A
:1016AC00EBFB02463B69D31A642B01D90323FDE003
:1016BC00814B1B6803F48073002BF0D07B68DB68D4
:1016CC00012B06D17B4B1B6A7A4A43F00103136250
:1016DC002DE07B68DB68002B0CD1764B1B6A754ABE
:1016EC0023F001031362734B1B6A724A23F0040349
:1016FC0013621CE07B68DB68052B0CD16D4B1B6AFD
:10170C006C4A43F0040313626A4B1B6A694A43F048
:10171C00010313620BE0674B1B6A664A23F001035B
:10172C001362644B1B6A634A23F0040313627B68E5
:10173C00DB68002B15D0FFF79FFB38610AE0FFF741
:10174C009BFB02463B69D31A41F28832934201D982
:10175C000323ABE0574B1B6A03F00203002BEED0C4
:10176C0014E0FFF789FB38610AE0FFF785FB0246BE
:10177C003B69D31A41F28832934201D9032395E095
:10178C004C4B1B6A03F00203002BEED1FB7D012BAB
:10179C0005D1484BDB69474A23F08053D3617B6802
:1017AC00DB69002B00F08180424B5B6803F00C037B
:1017BC00082B61D07B68DB69022B46D13F4B0022A2
:1017CC001A60FFF759FB386108E0FFF755FB02463A
:1017DC003B69D31A022B01D9032367E0354B1B68F5
:1017EC0003F00073002BF0D17B681B6AB3F5803FCC
:1017FC0008D1304B5B6823F400327B689B682D4921
:10180C0013434B602B4B5B6823F474127B68196A8F
:10181C007B685B6A0B43274913434B60274B0122C0
:10182C001A60FFF729FB386108E0FFF725FB024639
:10183C003B69D31A022B01D9032337E01D4B1B68DC
:10184C0003F00073002BF0D02FE01C4B00221A6029
:10185C00FFF712FB386108E0FFF70EFB02463B690D
:10186C00D31A022B01D9032320E0124B1B6803F07F
:10187C000073002BF0D118E07B68DB69012B01D1E0
:10188C00012313E00B4B5B68FB60FB6803F48032B5
:10189C007B681B6A9A4206D1FB6803F470127B6862
:1018AC005B6A9A4201D0012300E0002318461837E6
:1018BC00BD4680BD001002400070004060004242F6
:1018CC0080B584B000AF786039607B68002B01D1A3
:1018DC000123D0E06A4B1B6803F007033A689A4275
:1018EC0010D9674B1B6823F0070265493B6813430B
:1018FC000B60634B1B6803F007033A689A4201D0F4
:10190C000123B8E07B681B6803F00203002B20D096
:10191C007B681B6803F00403002B05D0594B5B68F4
:10192C00584A43F4E06353607B681B6803F0080378
:10193C00002B05D0534B5B68524A43F46053536001
:10194C00504B5B6823F0F0027B689B684D49134356
:10195C004B607B681B6803F00103002B40D07B6855
:10196C005B68012B07D1474B1B6803F40033002B3A
:10197C0015D101237FE07B685B68022B07D1414BBB
:10198C001B6803F00073002B09D1012373E03D4B5E
:10199C001B6803F00203002B01D101236BE0394BD0
:1019AC005B6823F003027B685B68364913434B602A
:1019BC00FFF762FAF8600AE0FFF75EFA0246FB688E
:1019CC00D31A41F28832934201D9032353E02D4BB1
:1019DC005B6803F00C027B685B689B009A42EBD15E
:1019EC00274B1B6803F007033A689A4210D2244B2A
:1019FC001B6823F0070222493B6813430B60204B02
:101A0C001B6803F007033A689A4201D0012332E0C5
:101A1C007B681B6803F00403002B08D0194B5B6830
:101A2C0023F4E0627B68DB68164913434B607B68E8
:101A3C001B6803F00803002B09D0124B5B6823F4DE
:101A4C0060527B681B69DB000E4913434B6000F04E
:101A5C0021F802460B4B5B681B0903F00F030A4984
:101A6C00CB5C22FA03F3094A1360094B1B68184636
:101A7C00FFF7C0F9002318461037BD4680BD00BFE4
:101A8C000020024000100240F41B0008000000205F
:101A9C000400002080B487B000AF0023FB6000235B
:101AAC00BB6000237B6100237B6000233B611E4BEA
:101ABC005B68FB60FB6803F00C03042B02D0082B63
:101ACC0003D027E0194B3B6127E0FB689B0C03F02C
:101ADC000F03174AD35C7B60FB6803F48033002B45
:101AEC0010D0114B5B685B0C03F00103114AD35C03
:101AFC00BB607B680D4A02FB03F2BB68B2FBF3F3DD
:101B0C007B6104E07B680C4A02FB03F37B617B691D
:101B1C003B6102E0054B3B6100BF3B6918461C373B
:101B2C00BD4680BC704700BF0010024000127A0016
:101B3C00041C0008141C000800093D0080B485B08A
:101B4C0000AF78600A4B1B680A4AA2FB03235B0AAE
:101B5C007A6802FB03F3FB6000BFFB685A1EFA6055
:101B6C00002BF9D100BF00BF1437BD4680BC7047B5
:101B7C0000000020D34D621070B500260C4D0D4CAA
:101B8C00641BA410A64209D100F022F800260A4DCD
:101B9C000A4C641BA410A64205D170BD55F8043B39
:101BAC0098470136EEE755F8043B98470136F2E7C3
:101BBC00181C0008181C0008181C00081C1C000825
:101BCC0003460244934200D1704703F8011BF9E726
:101BDC00F8B500BFF8BC08BC9E467047F8B500BF0E
:081BEC00F8BC08BC9E467047DE
:101BF40000000000000000000102030406070809B9
:101C040002030405060708090A0B0C0D0E0F101039
:041C140001020000C9
:041C1800310100088E
:041C1C000D010008AE
:0C1C200000127A0010000000010000001B
:0400000508000D8959
:00000001FF
